:1000000019C029C087C026C025C024C023C022C073
:1000100021C0DFC01FC01EC01DC01CC01BC01AC035
:1000200019C018C017C016C015C014C013C012C024
:1000300011C010C011241FBECFEFD4E0DEBFCDBF72
:1000400011E0A0E0B1E001C01D92A431B107E1F7D9
:10005000E5D09CC1D5CF1F920F920FB60F921124FD
:100060002F934F935F936F937F938F939F93AF9350
:10007000BF934A9B1BC02091B200809110019091C8
:100080001101A0911201B0911301BA2FA92F982F3D
:100090008827820F911DA11DB11D809308019093A7
:1000A0000901A0930A01B0930B0126C02091B20070
:1000B0008091100190911101A0911201B091130152
:1000C000409108015091090160910A0170910B0162
:1000D000BA2FA92F982F8827820F911DA11DB11D1E
:1000E000841B950BA60BB70B80930C0190930D010D
:1000F000A0930E01B0930F01BF91AF919F918F918B
:100100007F916F915F914F912F910F900FBE0F9044
:100110001F9018951F920F920FB60F9211242F93D4
:100120004F935F936F937F938F939F93AF93BF93FF
:100130004B9B1BC02091B200809110019091110146
:10014000A0911201B0911301BA2FA92F982F8827DF
:10015000820F911DA11DB11D80930001909301019B
:10016000A0930201B093030126C02091B2008091B8
:10017000100190911101A0911201B09113014091D1
:100180000001509101016091020170910301BA2FA9
:10019000A92F982F8827820F911DA11DB11D841BA7
:1001A000950BA60BB70B8093040190930501A093C8
:1001B0000601B0930701BF91AF919F918F917F91FD
:1001C0006F915F914F912F910F900FBE0F901F90E5
:1001D00018951F920F920FB60F9211248F939F9331
:1001E000AF93BF938091100190911101A0911201E2
:1001F000B09113010196A11DB11D80931001909340
:100200001101A0931201B0931301BF91AF919F917F
:100210008F910F900FBE0F901F90189584B5836A31
:1002200084BD85B5816085BD80918000816A8093A1
:100230008000809181008960809381008AB180660E
:100240008AB984B1866084B984B1806A84B984B182
:10025000877E84B98AB1837F8AB985B1806A85B97E
:10026000809169008560809369008DB383608DBB48
:100270008091B10084608093B100809170008160B2
:100280008093700017BC18BC84B58F7D84BD10921C
:1002900089001092880010928B0010928A00809141
:1002A00080008F7D809380007894E5E080910C0140
:1002B00090910D01A0910E01B0910F01E89FB00146
:1002C000E99F700D1124685E734080910401909144
:1002D0000501A0910601B0910701E89FA001E99FE7
:1002E000500D1124485E53409B01240F351FCB0154
:1002F000841B950B44B537FF10C04F7D44BD44B5FA
:10030000406844BD3195219531092F3F310519F0E1
:1003100014F02FEF30E027BD0CC04F7744BD44B53B
:10032000406244BD2F3F310519F014F02FEF30E04B
:1003300028BD2091800097FF16C02F7D209380005C
:1003400020918000206820938000919581959109EB
:100350008F3F910519F014F08FEF90E09093890092
:1003600080938800A3CF2F77209380002091800076
:100370002062209380008F3F910519F014F08FEFD9
:1003800090E090938B0080938A0090CFF894FFCFF9
:00000001FF
