:1000000019C029C03AC026C025C024C023C022C0C0
:1000100021C020C01FC01EC01DC01CC01BC01AC0F4
:1000200019C018C017C016C015C014C013C012C024
:1000300011C010C011241FBECFEFD4E0DEBFCDBF72
:1000400011E0A0E0B1E001C01D92A431B107E1F7D9
:1000500026D037C0D5CF1F920F920FB60F92112422
:100060008F939F938BB190E289278BB99F918F914A
:100070000F900FBE0F901F9018951F920F920FB602
:100080000F9211248F939F938BB190E489278BB9A2
:100090009F918F910F900FBE0F901F901895109207
:1000A00061008AB180668AB984B1866084B9809122
:1000B00069008560809369008DB383608DBB7894FF
:0600C000FFCFF894FFCF12
:00000001FF
