:1000000012C022C020C01FC01EC01DC01CC01BC00B
:100010001AC019C018C017C016C053C014C013C0EE
:1000200012C011C010C011241FBECFE5D2E0DEBF48
:10003000CDBF20E0A0E6B0E001C01D92AA36B20715
:10004000E1F7A8D0EDC2DCCF1F920F920FB60F924E
:1000500011242F933F938F939F93B69B07C082B732
:1000600090E0909363008093620022C082B7209159
:1000700062003091630090E0821B930B89379105F9
:10008000B8F082B7209162003091630090E0821B4B
:10009000930B8F3F910560F482B7209162003091FD
:1000A000630090E0821B930B909365008093640043
:1000B0009F918F913F912F910F900FBE0F901F90A6
:1000C00018951F920F920FB60F9211242F933F9302
:1000D0008F939F93CA9B07C082B790E0909367006D
:1000E0008093660022C082B720916600309167003D
:1000F00090E0821B930B89379105B8F082B720916D
:1001000066003091670090E0821B930B8F3F910552
:1001100060F482B7209166003091670090E0821B06
:10012000930B90936900809368009F918F913F910A
:100130002F910F900FBE0F901F901895B89AB99AF3
:10014000BA9ABB9ABC98BD98BE98BF98D098D198DF
:10015000D2980895CF93DF9300D0CDB7DEB7882330
:10016000A1F01A82198229813A81283E334059F040
:1001700029813A812F5F3F4F3A83298329813A8130
:10018000283E3340A9F7815061F70F900F90DF911F
:10019000CF910895D3DF85B7816085BF8BB7806C21
:1001A0008BBF83B7836083BF80B7836A80BF8FB5FF
:1001B00081608FBD86B5816086BD8FEF8BBD1DBC14
:1001C0001DBC81B58F6081BD789484E6C3DF8091CA
:1001D0006400909165000A96893C9105C0F3809176
:1001E0006400909165000A97883C910508F47FC0EF
:1001F000EECF80916800909169000A97883C910544
:1002000030F7D0E0CFEF609164007091650080E03E
:1002100090E00DD123E333E34BE950E496D120E0A5
:1002200030EC41E754E46DD0D1D06B017C0160919A
:1002300068007091690080E090E0F9D023E333E337
:100240004BE950E482D120E030EC41E754E459D04E
:10025000BDD09B012C0D3D1D6C197D098091610065
:1002600090E00F96281739073CF48091610090E0E8
:100270000F97821793071CF020936100A895809137
:10028000600090E00F96681779073CF48091600059
:1002900090E00F97861797071CF060936000A89571
:1002A000121613063CF42F3F31050CF02C2F2DBDF8
:1002B000C29809C022308FEF380714F0215001C0D6
:1002C0002D2F2DBDC29A161617063CF46F3F7105EF
:1002D0000CF06C2F6CBDC09896CF62308FEF780712
:1002E00014F0615001C06D2F6CBDC09A8CCF80910D
:1002F0006800909169000A96893C910508F079CFD1
:1003000066CF5058BB27AA270ED0E5C0D6D030F014
:10031000DBD020F031F49F3F11F41EF4CBC00EF47B
:10032000E095E7FBC1C0E92FE7D080F3BA17620779
:1003300073078407950718F071F49EF5FFC00EF45B
:10034000E0950B2EBA2FA02D0B01B90190010C01E5
:10035000CA01A0011124FF27591B99F0593F50F4FD
:10036000503E68F11A16F040A22F232F342F442755
:10037000585FF3CF469537952795A795F04053954D
:10038000C9F77EF41F16BA0B620B730B840BBAF01D
:100390009150A1F0FF0FBB1F661F771F881FC2F788
:1003A0000EC0BA0F621F731F841F48F4879577959C
:1003B0006795B795F7959E3F08F0B3CF9395880F53
:1003C00008F09927EE0F97958795089504D06894C3
:1003D000B111B5C0089598D088F09F5790F0B92F0B
:1003E0009927B751A0F0D1F0660F771F881F991F8A
:1003F0001AF0BA95C9F712C0B13081F09FD0B1E0C0
:1004000008959CC0672F782F8827B85F39F0B93FCF
:10041000CCF3869577956795B395D9F73EF490958B
:100420008095709561957F4F8F4F9F4F0895E89409
:1004300009C097FB3EF490958095709561957F4F2C
:100440008F4F9F4F9923A9F0F92F96E9BB279395DA
:10045000F695879577956795B795F111F8CFFAF4EA
:10046000BB0F11F460FF1BC06F5F7F4F8F4F9F4F1B
:1004700016C0882311F096E911C0772321F09EE879
:10048000872F762F05C0662371F096E8862F70E0DF
:1004900060E02AF09A95660F771F881FDAF7880FB9
:1004A0009695879597F9089597F99F6780E870E08A
:1004B00060E008959FEF80EC089500240A941616DA
:1004C000170618060906089500240A941216130642
:1004D000140605060895092E0394000C11F48823D0
:1004E00052F0BB0F40F4BF2B11F460FF04C06F5FEC
:1004F0007F4F8F4F9F4F089557FD9058440F551FC2
:1005000059F05F3F71F04795880F97FB991F61F095
:100510009F3F79F087950895121613061406551F0C
:10052000F2CF4695F1DF08C0161617061806991F78
:10053000F1CF86957105610508940895E894BB276D
:1005400066277727CB0197F908950AD0C4CFB5DF86
:1005500028F0BADF18F0952309F0A6CFABCFEFCF84
:10056000CBDFA8F39923D9F35523C9F3950F50E0B6
:10057000551FAA27EE27FF27BB270024089467955D
:1005800020F4E20FF31FB41F0A1E220F331F441F73
:10059000AA1F6695A9F7779530F4F30FB41F0A1ECA
:1005A000121E08F46395330F441FAA1F221F76956D
:1005B00099F7879520F4B40F0A1E121E631F440F8B
:1005C000AA1F221F331F8695A9F7862F712D602D34
:1005D00011249F5750408AF0E1F088234AF0EE0F33
:1005E000FF1FBB1F661F771F881F91505040A9F740
:1005F0009E3F510570F058CFA2CF5F3FECF3983E7D
:10060000DCF3869577956795B795F795E7959F5FA6
:10061000C1F7FE2B880F911D9695879597F9089540
:04062000F894FFCF7C
:00000001FF
