S0100000426565746C6520432E7372656360
S113000012C022C020C01FC01EC01DC01CC01BC007
S11300101AC019C018C017C016C03BC014C013C002
S113002012C011C010C011241FBECFE5D2E0DEBF44
S1130030CDBF20E0A0E6B0E001C01D92A436B20717
S1130040E1F778D08FC2DCCF1F920F920FB60F92D8
S113005011242F938F939F93B69B04C082B78093F0
S113006060000FC082B72091600090E0821B91096C
S11300701816190634F482B790916000891B809396
S113008061009F918F912F910F900FBE0F901F9041
S113009018951F920F920FB60F9211242F938F93DE
S11300A09F93CA9B04C082B7809362000FC082B73B
S11300B02091620090E0821B91091816190634F40D
S11300C082B790916200891B809363009F918F9106
S11300D02F910F900FBE0F901F901895B89AB99A50
S11300E0BA9ABB9ABC98BD98BE98BF98D098D1983C
S11300F0D2980895CF93DF9300D0CDB7DEB788238D
S1130100A1F01A82198229813A81283E334059F09C
S113011029813A812F5F3F4F3A83298329813A818C
S1130120283E3340A9F7815061F70F900F90DF917B
S1130130CF910895D3DF85B7816085BF8BB7806C7D
S11301408BBF84E6D7DF83B7836083BF80B7836ABE
S113015080BF8FB581608FBD86B5816086BD8FEF0E
S11301608BBD789410E0DFEFC0E06091610070E037
S11301706D577109882777FD8095982FFCD02FE65D
S113018032E143E050E483D120E030E040E053E446
S11301905AD09B01AC0158D0BBD06B017C0160915B
S11301A0630070E06D577109882777FD8095982F5B
S11301B0E2D02FE632E143E050E469D120E030E0C0
S11301C040E053E440D09B01AC013ED0A1D09B0160
S11301D02C0D3D1D6C197D092531310544F02F3F4F
S11301E0310511F00CF02D2F2DBDC29810C02C3EFE
S11301F08FEF380754F422308FEF380714F0215072
S113020001C0212F2DBDC29A02C01DBCC298653108
S1130210710544F06F3F710511F00CF06D2F6CBD4A
S1130220C098A3CF6C3E8FEF780754F462308FEF01
S1130230780714F0615001C0612F6CBDC09A95CF4E
S11302401CBCC09A92CF5058BB27AA270ED0E5C039
S1130250D6D030F0DBD020F031F49F3F11F41EF4FF
S1130260CBC00EF4E095E7FBC1C0E92FE7D080F3E3
S1130270BA17620773078407950718F071F49EF59F
S1130280FFC00EF4E0950B2EBA2FA02D0B01B9017F
S113029090010C01CA01A0011124FF27591B99F0F8
S11302A0593F50F4503E68F11A16F040A22F232F04
S11302B0342F4427585FF3CF469537952795A79554
S11302C0F0405395C9F77EF41F16BA0B620B730BFB
S11302D0840BBAF09150A1F0FF0FBB1F661F771F6C
S11302E0881FC2F70EC0BA0F621F731F841F48F421
S11302F0879577956795B795F7959E3F08F0B3CFA7
S11303009395880F08F09927EE0F97958795089590
S113031004D06894B111B5C0089598D088F09F575F
S113032090F0B92F9927B751A0F0D1F0660F771F3D
S1130330881F991F1AF0BA95C9F712C0B13081F01D
S11303409FD0B1E008959CC0672F782F8827B85FAD
S113035039F0B93FCCF3869577956795B395D9F77E
S11303603EF490958095709561957F4F8F4F9F4F88
S11303700895E89409C097FB3EF490958095709594
S113038061957F4F8F4F9F4F9923A9F0F92F96E9DD
S1130390BB279395F695879577956795B795F11152
S11303A0F8CFFAF4BB0F11F460FF1BC06F5F7F4FEF
S11303B08F4F9F4F16C0882311F096E911C0772301
S11303C021F09EE8872F762F05C0662371F096E80A
S11303D0862F70E060E02AF09A95660F771F881FD9
S11303E0DAF7880F9695879597F9089597F99F6797
S11303F080E870E060E008959FEF80EC08950024A9
S11304000A941616170618060906089500240A9475
S113041012161306140605060895092E0394000CFB
S113042011F4882352F0BB0F40F4BF2B11F460FF8A
S113043004C06F5F7F4F8F4F9F4F089557FD9058B3
S1130440440F551F59F05F3F71F04795880F97FB94
S1130450991F61F09F3F79F087950895121613064E
S11304601406551FF2CF4695F1DF08C0161617067D
S11304701806991FF1CF86957105610508940895B2
S1130480E894BB2766277727CB0197F908950AD00C
S1130490C4CFB5DF28F0BADF18F0952309F0A6CF52
S11304A0ABCFEFCFCBDFA8F39923D9F35523C9F30F
S11304B0950F50E0551FAA27EE27FF27BB270024DE
S11304C00894679520F4E20FF31FB41F0A1E220F4D
S11304D0331F441FAA1F6695A9F7779530F4F30FCD
S11304E0B41F0A1E121E08F46395330F441FAA1F7B
S11304F0221F769599F7879520F4B40F0A1E121ED1
S1130500631F440FAA1F221F331F8695A9F7862F46
S1130510712D602D11249F5750408AF0E1F08823FB
S11305204AF0EE0FFF1FBB1F661F771F881F9150F5
S11305305040A9F79E3F510570F058CFA2CF5F3FBE
S1130540ECF3983EDCF3869577956795B795F79528
S1130550E7959F5FC1F7FE2B880F911D96958795B0
S10B056097F90895F894FFCF08
S9030000FC
