S0100000426565746C6520432E7372656360
S113000012C022C020C01FC01EC01DC01CC01BC007
S11300101AC019C018C017C016C053C014C013C0EA
S113002012C011C010C011241FBECFE5D2E0DEBF44
S1130030CDBF20E0A0E6B0E001C01D92A836B20713
S1130040E1F7A8D0AEC2DCCF1F920F920FB60F9289
S113005011242F933F938F939F93B69B07C082B72E
S113006090E0909361008093600022C082B7209159
S113007060003091610090E0821B930B89379105F9
S1130080B8F082B7209160003091610090E0821B4B
S1130090930B8F3F910560F482B7209160003091FB
S11300A0610090E0821B930B909363008093620045
S11300B09F918F913F912F910F900FBE0F901F90A2
S11300C018951F920F920FB60F9211242F933F93FE
S11300D08F939F93CA9B07C082B790E0909365006B
S11300E08093640022C082B720916400309165003F
S11300F090E0821B930B89379105B8F082B7209169
S113010064003091650090E0821B930B8F3F910552
S113011060F482B7209164003091650090E0821B06
S1130120930B90936700809366009F918F913F910A
S11301302F910F900FBE0F901F901895B89AB99AEF
S1130140BA9ABB9ABC98BD98BE98BF98D098D198DB
S1130150D2980895CF93DF9300D0CDB7DEB788232C
S1130160A1F01A82198229813A81283E334059F03C
S113017029813A812F5F3F4F3A83298329813A812C
S1130180283E3340A9F7815061F70F900F90DF911B
S1130190CF910895D3DF85B7816085BF8BB7806C1D
S11301A08BBF83B7836083BF80B7836A80BF8FB5FB
S11301B083608FBD86B5816086BD8FEF8BBD81B5B1
S11301C0886281BD1DBC1CBC789484E6C3DF88ECC6
S11301D090E0909363008093620090936700809313
S11301E06600D0E0CFEF609162007091630080E020
S11301F090E0DED023E333E34BE950E467D120E021
S113020030EC41E754E43ED0A2D06B017C01609114
S113021066007091670080E090E0CAD023E333E386
S11302204BE950E453D120E030EC41E754E42AD0C8
S11302308ED09B012C0D3D1D6C197D09A89533238F
S11302403CF02F3F31050CF02C2F2DBDC09807C07A
S113025022308FEF38070CF42D2F2DBDC09A772351
S11302603CF06F3F71050CF06C2F6CBDC29807C059
S113027062308FEF78070CF46D2F6CBDC29A82E365
S113028069DFB1CF5058BB27AA270ED0E5C0D6D01E
S113029030F0DBD020F031F49F3F11F41EF4CBC0DA
S11302A00EF4E095E7FBC1C0E92FE7D080F3BA175D
S11302B0620773078407950718F071F49EF5FFC071
S11302C00EF4E0950B2EBA2FA02D0B01B90190016D
S11302D00C01CA01A0011124FF27591B99F0593FB1
S11302E050F4503E68F11A16F040A22F232F342FF9
S11302F04427585FF3CF469537952795A795F04047
S11303005395C9F77EF41F16BA0B620B730B840B5B
S1130310BAF09150A1F0FF0FBB1F661F771F881F13
S1130320C2F70EC0BA0F621F731F841F48F487956B
S113033077956795B795F7959E3F08F0B3CF93955A
S1130340880F08F09927EE0F97958795089504D0A4
S11303506894B111B5C0089598D088F09F5790F073
S1130360B92F9927B751A0F0D1F0660F771F881FD6
S1130370991F1AF0BA95C9F712C0B13081F09FD015
S1130380B1E008959CC0672F782F8827B85F39F0B3
S1130390B93FCCF3869577956795B395D9F73EF435
S11303A090958095709561957F4F8F4F9F4F0895DD
S11303B0E89409C097FB3EF49095809570956195FB
S11303C07F4F8F4F9F4F9923A9F0F92F96E9BB27B1
S11303D09395F695879577956795B795F111F8CF2D
S11303E0FAF4BB0F11F460FF1BC06F5F7F4F8F4F98
S11303F09F4F16C0882311F096E911C0772321F08E
S11304009EE8872F762F05C0662371F096E8862F25
S113041070E060E02AF09A95660F771F881FDAF77C
S1130420880F9695879597F9089597F99F6780E8BF
S113043070E060E008959FEF80EC089500240A9432
S11304401616170618060906089500240A941216AB
S11304501306140605060895092E0394000C11F4DE
S1130460882352F0BB0F40F4BF2B11F460FF04C08B
S11304706F5F7F4F8F4F9F4F089557FD9058440FE4
S1130480551F59F05F3F71F04795880F97FB991FEF
S113049061F09F3F79F087950895121613061406AC
S11304A0551FF2CF4695F1DF08C016161706180639
S11304B0991FF1CF86957105610508940895E89414
S11304C0BB2766277727CB0197F908950AD0C4CFB5
S11304D0B5DF28F0BADF18F0952309F0A6CFABCF2B
S11304E0EFCFCBDFA8F39923D9F35523C9F3950FA5
S11304F050E0551FAA27EE27FF27BB2700240894A6
S1130500679520F4E20FF31FB41F0A1E220F331F56
S1130510441FAA1F6695A9F7779530F4F30FB41F0B
S11305200A1E121E08F46395330F441FAA1F221FCC
S1130530769599F7879520F4B40F0A1E121E631F4F
S1130540440FAA1F221F331F8695A9F7862F712DEA
S1130550602D11249F5750408AF0E1F088234AF01F
S1130560EE0FFF1FBB1F661F771F881F915050405F
S1130570A9F79E3F510570F058CFA2CF5F3FECF32F
S1130580983EDCF3869577956795B795F795E7954B
S11305909F5FC1F7FE2B880F911D9695879597F95C
S10905A00895F894FFCF5A
S9030000FC
